:020000040800F2
:10000000FFFF0120154C00085D4C00085D4C000806
:100010005D4C00085D4C00085D4C000800000000CD
:10002000000000000000000000000000F92F0008A0
:100030005D4C000800000000B530000805310008E4
:100040005D4C00085D4C00085D4C00085D4C0008EC
:100050005D4C00085D4C00085D4C00085D4C0008DC
:100060005D4C00085D4C00085D4C00085D4C0008CC
:100070005D4C00085D4C00085D4C00085D4C0008BC
:100080005D4C00085D4C00085D4C00085D4C0008AC
:100090005D4C00085D4C00085D4C00085D4C00089C
:1000A0005D4C00085D4C00085D4C00085D4C00088C
:1000B0005D4C00085D4C00085D4C00085D4C00087C
:1000C0005D4C00085D4C00085D4C00085D4C00086C
:1000D0005D4C00085D4C00085D4C00085D4C00085C
:1000E0005D4C00085D4C00085D4C00085D4C00084C
:1000F0005D4C00085D4C00085D4C00085D4C00083C
:100100005D4C00085D4C00085D4C00085D4C00082B
:100110005D4C00085D4C00085D4C00085D4C00081B
:100120005D4C00085D4C00085D4C00085D4C00080B
:100130005D4C00085D4C00085D4C00085D4C0008FB
:100140005D4C00085D4C00085D4C00085D4C0008EB
:100150005D4C00085D4C00085D4C00085D4C0008DB
:100160005D4C00085D4C00085D4C00085D4C0008CB
:100170005D4C00085D4C00085D4C00085D4C0008BB
:080180005D4C00085D4C000815
:100190000648074B10B5834204D0064B002B01D014
:1001A00000F04EF810BC01BC0047C04680000020A3
:1001B000800000200000000008480949091A8B103F
:1001C000C90FC91810B5491004D0064B002B01D037
:1001D00000F036F810BC01BC0047C046800000208B
:1001E000800000200000000010B5084C2378002B90
:1001F00009D1FFF7CDFF064B002B02D00548AFF326
:1002000000800123237010BC01BC00478000002047
:1002100000000000144D0008064B10B5002B03D061
:1002200005490648AFF30080FFF7C6FF10BC01BCCC
:100230000047C0460000000084000020144D000864
:100240001847C046344B35481A68002142F0010275
:100250001A6099601A6822F0847222F480321A605F
:1002600058601A6882B022F480221A60D960009126
:1002700001911A6842F480321A6003E0009AB2F5E4
:10028000A04F09D01A6802F400320192009A01329C
:100290000092019A002AF1D01F4B1B6813F400331F
:1002A00018BF01230193019B012B05D01C4B4FF07C
:1002B00000629A6002B07047174B1A491A6C1A48CC
:1002C00042F080521A640A6842F440420A609A6816
:1002D0009A609A6842F400429A609A6842F4A05286
:1002E0009A6058601A6842F080721A601A68920127
:1002F000FCD50E4A084940F2057010609A6822F059
:1003000003029A609A6842F002029A608B6803F0D6
:100310000C03082BFAD1C9E7003802401030002442
:1003200000ED00E00070004008544007003C02402F
:10033000154A936803F00C03042B0BD0082B0BD049
:10034000124B114A12499268C2F303128A5CD340DD
:100350000B6170470F4BF4E75068516852684302D5
:10036000C2F388124CBF0C4B084B01F03F01B3FBAA
:10037000F1F303FB02F3044A5268C2F30142013273
:100380005200B3FBF2F3DCE7003802400024F40033
:100390000400002000127A0040787D0100F108037B
:1003A0004FF0FF310022C0E90333816002604360F7
:1003B000704700BF00230361704700BF43680268B5
:1003C00010B49C688C609C684B60013261609960DD
:1003D00010BC08610260704730B40D686B1C10D00F
:1003E00000F108031C465B681A68AA42FAD9026841
:1003F0004B60013299608C606160086130BC0260C2
:10040000704704696368F2E7036910B4D0E9011228
:100410005C688A608442516008BF5A601A6810BCE8
:100420000021013A01611A601868704770B50446EE
:10043000006CA66B20B925685DB30136A66370BD5C
:100440001546024685B9606804F038F96368216C86
:10045000A2680B449342636006F1010624BF23683F
:1004600063602846A66370BDE06804F027F9226C3B
:10047000E36821689B1A8B42E360C2F1000202D25A
:10048000A3681A44E260022D08D001360020A6635A
:1004900070BDA06801F08CFFA560CEE7012E38BFCB
:1004A00001260020CAE700BF026C72B1034610B4F7
:1004B0000846D3E902411144A142D96028BF196816
:1004C00010BC28BFD96004F0F9B8704770B5044675
:1004D00002F0BAFD94F845506DB2002D15DD04F11F
:1004E000240604E06B1E13F0FF0F5DB20DD0636AAB
:1004F000304653B101F01AFD0028F3D001F0FEFDA3
:100500006B1E13F0FF0F5DB2F1D1FF2384F845306D
:1005100002F0BCFD02F098FD94F844506DB2002D3D
:1005200015DD04F1100604E06B1E13F0FF0F5DB241
:100530000DD02369304653B101F0F8FC0028F3D008
:1005400001F0DCFD6B1E13F0FF0F5DB2F1D1FF2354
:1005500084F84430BDE8704002F098BD4FF050037D
:1005600083F31188BFF36F8FBFF34F8FFEE700BF98
:1005700038B5E0B104460D4602F066FDD4E90F132C
:100580002268626001FB03F1CB1A134400200A4485
:10059000FF21A063C4E9022384F8441084F84510C5
:1005A0003DB923698BB902F071FD012038BDFFF719
:1005B000D5FF04F11000FFF7F1FE04F12400FFF76E
:1005C000EDFE02F063FD012038BD04F1100001F0E2
:1005D000ADFC0028E7D0044B4FF080521A60BFF307
:1005E0004F8FBFF36F8FDEE704ED00E0F8B540B941
:1005F0004FF0500383F31188BFF36F8FBFF34F8F1A
:10060000FEE70E4617460546C9B101FB00F0B0FBF8
:10061000F1F3AB4201D0FFF7A1FF503002F050FEE2
:10062000044698B104F150032360C4E90F56012138
:100630002046FFF79DFF84F84C702046F8BD5020FF
:1006400002F03EFE044608B12460EEE70024F4E721
:1006500040B94FF0500383F31188BFF36F8FBFF39E
:100660004F8FFEE7884210B50C4608D24FF050037A
:1006700083F31188BFF36F8FBFF34F8FFEE7022222
:100680000021FFF7B3FF00B1846310BD2DE9F047EF
:1006900084B00192002876D088461F46044600297F
:1006A00065D0022F0BD1E36B012B08D04FF0500324
:1006B00083F31188BFF36F8FBFF34F8FFEE701F015
:1006C00015FE0646002867D00026DFF83CA14FF053
:1006D000000907E002F0DAFC2046FFF7F7FE01F020
:1006E000CFF9012602F0B0FCA26BE36B9A4263D310
:1006F000022F61D0019D002D00F08280002E57D086
:1007000002F0C4FC01F0B2F902F09EFC94F844300F
:10071000FF2B08BF84F8449094F84530FF2B08BFA6
:1007200084F8459002F0B2FC01A902A801F0A2FCF5
:1007300000285ED102F088FCA26BE36B9A42C9D11B
:1007400002F0A4FC019904F1100001F089FB20469D
:10075000FFF7BCFE01F094F90028C2D14FF080539E
:10076000CAF80030BFF34F8FBFF36F8FB9E7036C48
:10077000002B96D04FF0500383F31188BFF36F8F97
:10078000BFF34F8FFEE74FF0500383F31188BFF3A1
:100790006F8FBFF34F8FFEE7019B002B95D04FF07B
:1007A000500383F31188BFF36F8FBFF34F8FFEE7C2
:1007B00002A801F055FCA3E73A4641462046FFF760
:1007C00035FE626A72B938B10F4B4FF080521A6031
:1007D000BFF34F8FBFF36F8F02F058FC012004B0BE
:1007E000BDE8F08704F1240001F0A0FB0028F3D05D
:1007F000EAE72046FFF76AFE01F042F90020EEE743
:1008000002F044FC2846EAE704ED00E010B5024699
:1008100000210120FFF7EAFE044638B1002383607F
:100820000360C3601A461946FFF730FF204610BD2B
:1008300038B538B18568044601F052FD85420AD0CA
:10084000002038BD4FF0500383F31188BFF36F8F42
:10085000BFF34F8FFEE7E368013BE3600BB101207C
:1008600038BD20461A461946FFF710FF012038BD53
:100870002DE9F843002835D0894690461F460446A6
:1008800021B3022F0BD1E36B012B08D04FF05003A3
:1008900083F31188BFF36F8FBFF34F8FFEE702F032
:1008A000B7FCEFF311864FF0500383F31188BFF3C9
:1008B0006F8FBFF34F8FA26BE36B9A421BD3022F54
:1008C00019D0002086F31188BDE8F883036C002B53
:1008D000D7D04FF0500383F31188BFF36F8FBFF36E
:1008E0004F8FFEE74FF0500383F31188BFF36F8FF4
:1008F000BFF34F8FFEE794F84550A36B3A46494645
:100900006DB22046FFF792FD6B1C0AD07F2D18D0E8
:100910006B1C5BB284F84530012086F31188BDE87A
:10092000F883636A002BF7D004F1240001F0FEFA8B
:100930000028F1D0B8F1000FEED00120C8F8000077
:10094000C0E74FF0500383F31188BFF36F8FBFF3FD
:100950004F8FFEE770B3036C70B5044643B14FF0A0
:10096000500383F31188BFF36F8FBFF34F8FFEE700
:1009700003680D463BB302F04BFCEFF311864FF0DA
:10098000500383F31188BFF36F8FBFF34F8FA36BB7
:10099000E26B9A4223D994F845200133FF2AA363DE
:1009A00053B220D07F2B2CD001335BB284F845307A
:1009B000012015E04FF0500383F31188BFF36F8FD0
:1009C000BFF34F8FFEE78368002BD4D04FF0500366
:1009D00083F31188BFF36F8FBFF34F8FFEE70020C3
:1009E00086F3118870BD636A002BE1D004F1240006
:1009F00001F09CFA0028DBD0002DD9D0012028601E
:100A0000EEE74FF0500383F31188BFF36F8FBFF30E
:100A10004F8FFEE72DE9F04385B00192002871D099
:100A20000E460446002954D001F060FC002844D052
:100A300002F00AFBA56B002D40F08380019B002B88
:100A400035D002A801F00CFBDFF82C912F4604F101
:100A5000240802F01BFB01F009F802F0F5FA94F803
:100A60004430FF2B08BF84F8447094F84530FF2BC6
:100A700008BF84F8457002F009FB01A902A801F043
:100A8000F9FA002831D102F0DFFAA36B002B42D033
:100A900002F0FCFA2046FFF719FD00F0F1FF02F02A
:100AA000D3FAA56B002D4CD1019B002BD1D102F0C4
:100AB000EDFA002005B0BDE8F083019B002BB7D014
:100AC0004FF0500383F31188BFF36F8FBFF34F8F45
:100AD000FEE7036C002BA7D04FF0500383F311887F
:100AE000BFF36F8FBFF34F8FFEE72046FFF7EEFC9B
:100AF00000F0C6FF02F0A8FAA36B002BD7D002F0DB
:100B0000C5FACCE74FF0500383F31188BFF36F8F22
:100B1000BFF34F8FFEE702F0B9FA0199404601F0AA
:100B20009FF92046FFF7D2FC00F0AAFF0028B6D1BB
:100B30004FF08053C9F80030BFF34F8FBFF36F8F72
:100B4000ADE731462046013DFFF7AEFCA5632369C2
:100B50001BB902F09BFA0120ACE704F1100001F090
:100B6000E5F90028F5D0044B4FF080521A60BFF32E
:100B70004F8FBFF36F8FECE704ED00E02DE9F041FC
:100B800084B0019158B1056C04468DB14FF050030B
:100B900083F31188BFF36F8FBFF34F8FFEE74FF0E2
:100BA000500383F31188BFF36F8FBFF34F8FFEE7BE
:100BB00001F09CFB064600285CD02E4602F044FA69
:100BC000A36BDFF86C81002783BB019B002B00F037
:100BD000A280002E42D002F059FA00F047FF02F046
:100BE00033FA94F84430FF2B08BF84F8447094F82B
:100BF0004530FF2B08BF84F8457002F047FA01A981
:100C000002A801F037FAE8B902F01EFAA36B002B34
:100C10003DD002F03BFA2046FFF758FC00F030FFD1
:100C200002F012FAA36B0126002BCED02268013B02
:100C3000A363002A5CD02369002B4AD102F026FA74
:100C4000012513E02046FFF741FC00F019FF02F0F8
:100C5000FBF9A36B33B102F019FAE1E702A801F046
:100C6000FFF9B8E702F012FA002D45D1284604B08A
:100C7000BDE8F081019B43B14FF0500383F311882D
:100C8000BFF36F8FBFF34F8FFEE7054696E702F085
:100C9000FDF92368A3B1019904F1240001F0E0F803
:100CA0002046FFF713FC00F0EBFE0028B8D14FF010
:100CB0008053C8F80030BFF34F8FBFF36F8FAFE79B
:100CC00002F0C2F9A06801F021FB054602F0DEF94E
:100CD000E1E704F1100001F029F90028AED0144B2F
:100CE0004FF080521A60BFF34F8FBFF36F8FA5E7AD
:100CF00001F01CFCA0609EE702F0A6F9616A19B140
:100D0000236B1968C1F10501A06801F0A3FB002560
:100D100002F0BCF9AAE745B14FF0500383F3118804
:100D2000BFF36F8FBFF34F8FFEE702F0AFF99DE780
:100D300004ED00E0A8B170B586680D46044601F0E8
:100D4000CFFA864208D029462046FFF717FF10B198
:100D5000E3680133E36070BDE3680133E3600120C1
:100D600070BD4FF0500383F31188BFF36F8FBFF353
:100D70004F8FFEE72DE9F04184B00192002870D03A
:100D80000E460446002953D001F0B0FA002843D0A3
:100D900002F05AF9A56B002D40F08280019B002BD8
:100DA00034D002A801F05CF9DFF82C8104F12407AB
:100DB00002F06CF900F05AFE02F046F994F8443063
:100DC000FF2B08BF84F8445094F84530FF2B08BF30
:100DD00084F8455002F05AF901A902A801F04AF935
:100DE000002831D102F030F9A36B002B42D002F081
:100DF0004DF92046FFF76AFB00F042FE02F024F9AD
:100E0000A36B002B4CD1019B002BD1D102F03EF9FA
:100E1000002004B0BDE8F081019B002BB8D04FF05A
:100E2000500383F31188BFF36F8FBFF34F8FFEE73B
:100E3000036C002BA8D04FF0500383F31188BFF34D
:100E40006F8FBFF34F8FFEE72046FFF73FFB00F0A9
:100E500017FE02F0F9F8A36B002BD7D002F016F9B9
:100E6000CCE74FF0500383F31188BFF36F8FBFF3CC
:100E70004F8FFEE702F00AF90199384600F0F0FFC3
:100E80002046FFF723FB00F0FBFD0028B6D14FF012
:100E90008053C8F80030BFF34F8FBFF36F8FADE7BB
:100EA00031462046E568FFF7FFFA636AE5601BB943
:100EB00002F0ECF80120ACE704F1240001F036F870
:100EC0000028F5D0044B4FF080521A60BFF34F8FCB
:100ED000BFF36F8FECE700BF04ED00E02DE9F843AE
:100EE00010B389469046054691B102F091F9EFF3AF
:100EF00011874FF0500383F31188BFF36F8FBFF357
:100F00004F8FAC6BCCB9204687F31188BDE8F883CE
:100F1000036C002BE9D04FF0500383F31188BFF32B
:100F20006F8FBFF34F8FFEE74FF0500383F31188AD
:100F3000BFF36F8FBFF34F8FFEE795F844604946CC
:100F4000284676B2FFF7B0FA013C731CAC630AD0B6
:100F50007F2E18D0731C5BB285F84430012087F3D4
:100F60001188BDE8F8832B69002BF7D005F110003C
:100F700000F0DCFF0028F1D0B8F1000FEED0012026
:100F8000C8F80000C0E74FF0500383F31188BFF3A7
:100F90006F8FBFF34F8FFEE7C8B170B5036C0D467E
:100FA000044649B1E3B94FF0500383F31188BFF30E
:100FB0006F8FBFF34F8FFEE7002BF4D04FF050033D
:100FC00083F31188BFF36F8FBFF34F8FFEE74FF0AE
:100FD000500383F31188BFF36F8FBFF34F8FFEE78A
:100FE00002F016F9EFF311864FF0500383F31188E6
:100FF000BFF36F8FBFF34F8FA06B10B986F31188CB
:1010000070BD29462046E568FFF74EFAE5600120ED
:10101000F4E700BF40B110B5044602F015F8A46B28
:1010200002F034F8204610BD4FF0500383F31188CE
:10103000BFF36F8FBFF34F8FFEE700BF50B110B506
:10104000044602F001F8A36BE46BE41A02F01EF808
:10105000204610BD4FF0500383F31188BFF36F8F0C
:10106000BFF34F8FFEE700BF08B1806B70474FF0B2
:10107000500383F31188BFF36F8FBFF34F8FFEE7E9
:1010800070B110B40F49002351F83340A0424FEA29
:10109000C3020ED00133082BF6D110BC02F096B972
:1010A0004FF0500383F31188BFF36F8FBFF34F8F5F
:1010B000FEE705490A44002441F83340546010BC5F
:1010C00002F084B9B02F0120AC2F0120806C704752
:1010D0008164704790F84C00704700BF20B1806B6E
:1010E000B0FA80F0400970474FF0500383F3118845
:1010F000BFF36F8FBFF34F8FFEE700BF30B1826B3E
:10110000C06B801AB0FA80F0400970474FF050036E
:1011100083F31188BFF36F8FBFF34F8FFEE700BFDC
:1011200030B4084A002352F8334002EBC30524B11F
:101130000133082BF7D130BC7047686042F8331098
:1011400030BC7047AC2F01200749002351F83320F1
:10115000824204D00133082BF8D100207047034AA3
:1011600052F83300704700BFB02F0120AC2F012090
:1011700010B40A49002351F8332082424FEAC304D5
:1011800004D00133082BF6D110BC7047044A144434
:101190000021616042F8331010BC7047B02F01206D
:1011A000AC2F012070B504460E46154601F04CFFE9
:1011B00094F84430FF2B04BF002384F8443094F8A3
:1011C0004530FF2B04BF002384F8453001F05EFF5B
:1011D000A36B23B12046BDE87040FFF777B904F157
:1011E00024002A46314600F081FE2046BDE87040CA
:1011F000FFF76CB980B5134C134F4FF0805614E0D5
:1012000001F022FF2369DD68281DFFF7FDF8A369BF
:10121000013BA3612368013B236001F037FF286B8A
:1012200002F0D4F8284602F0D1F82368002BE7D169
:10123000E369012BF9D93E60BFF34F8FBFF36F8F86
:10124000F3E700BF9C00002004ED00E068B10B490B
:1012500042698A4201D000207047806A143290426D
:10126000F9D0B0FA80F0400970474FF0500383F393
:101270001188BFF36F8FBFF34F8FFEE71C01002073
:10128000034BD3F8A820D2681268C3F8AC2070478B
:101290009C000020F8B51F4CD4F8B060D4F8B430EE
:1012A0000546181D0F46FFF7AFF850B9D4F8B42023
:1012B000D4F8B830D16A01228A4023EA0203C4F884
:1012C000B8306B1C1BD0D4F8B43075195D6008D3EE
:1012D000D4F8BC00D4F8B410BDE8F8400431FFF7EE
:1012E0007BB8D4F8A800D4F8B4100431FFF774F830
:1012F000D4F8AC30AB4288BFC4F8AC50F8BD002F76
:10130000E1D0D4F8B4100448BDE8F8400431FFF748
:1013100055B800BF9C0000201C0100202DE9F047BB
:10132000434CD4F8B0600136C4F8B06006BBD4F8C2
:10133000A8301B6843B14FF0500383F31188BFF30B
:101340006F8FBFF34F8FFEE7D4F8A830D4F8BC20DE
:10135000C4F8A820C4F8BC30D4F8C0300133C4F8B5
:10136000C030D4F8A8301B68002B53D0FFF788FF9B
:10137000D4F8AC309E4239D3D4F8A8301D68002D83
:1013800051D0DFF8B08000254FF0010921E0FFF7D0
:101390003BF8BB6A07F118000BB1FFF735F8F86AA4
:1013A000D4F8B82009FA00F300EB8000134351464B
:1013B00008EB8000C4F8B830FFF700F8D4F8B42088
:1013C000D4F8A830F96AD26A1B68914228BF012577
:1013D0004BB3D4F8A830DB68DF687B6807F1040AF8
:1013E0009E425046D3D2C4F8AC3000E00025D4F879
:1013F000B430DB6A03EB830304EB8303DA69D4F8CC
:10140000C430022A28BF0125002B0CBF284601202A
:10141000BDE8F0874FF0FF33C4F8AC30D4F8AC30FF
:101420009E42E3D3A8E74FF0FF33C4F8AC30DEE7C9
:101430009C000020B80000202DE9F84F960080465F
:1014400030460D46994601F03BFF002800F08380AE
:101450000746582001F034FF0446002800F08A8037
:10146000076332463846A52103F07EF9D4F830A050
:10147000002D00F088806F1E04F13303093517F842
:10148000012F03F8012F3A780AB1AF42F7D10023B8
:1014900084F83D300A9D042D28BF04254FF0000B31
:1014A000271DC4E9125BE5623846043EFEF782FF61
:1014B000C5F1050504F118005644FEF77BFFA56150
:1014C00026F00700C4F850B084F854B02461646278
:1014D0004A46414601F07CFD0B9B206003B11C6035
:1014E000454D01F0B1FDAB690133AB61D5F8B430C6
:1014F000002B4BD0D5F8F0308BB3E06A05F11C0817
:10150000D5F8F430D5F8B8C00126334406FA00F215
:1015100000EB800042EA0C022364394608EB8000AD
:10152000C5F8F430C5F8B820FEF748FF01F0AEFD6D
:10153000D5F8F03023B3D5F8B420E36AD26A9A42E2
:101540001ED22E4B4FF080521A60BFF34F8FBFF365
:101550006F8F304601E04FF0FF30BDE8F88FD5F8CF
:10156000B430E06ADB6A834298BFC5F8B44005F145
:101570001C08C5E7384601F029FF4FF0FF30ECE7C3
:101580003046BDE8F88F84F8345083E7C5F8B4409E
:10159000AB69012BB1D105F11C084046FEF7FEFEF8
:1015A00005F13000FEF7FAFE05F14400FEF7F6FE05
:1015B00005F15800FEF7F2FE05F1C80905F16C00CF
:1015C000FEF7ECFE05F1DC064846FEF7E7FE304686
:1015D000FEF7E4FE05F19400FEF7E0FE281DFEF79D
:1015E000DDFE05F18000FEF7D9FEC5F8A890E06A9F
:1015F000C5F8BC6084E700BF9C00002004ED00E05B
:1016000070B50546334C01F01FFD002D49D02E1D4D
:101610003046FEF7F9FE30B9E86A00EB800304EBD0
:101620008303DB6963B3AB6A1BB105F11800FEF7F6
:10163000EBFED4F8F430D4F8B4200133AA42C4F855
:10164000F43026D0A369286B013BA36101F0BEFEF4
:10165000284601F0BBFED4F8A8301B685BB1FFF749
:101660000FFE01F013FDD4F8F0301BB1D4F8B43004
:10167000AB4219D070BD4FF0FF33C4F8AC30F0E787
:10168000D4F8B8300122824023EA0203C4F8B8300B
:10169000C9E711483146FEF791FE23680133236004
:1016A000DFE7D4F8B450B2E7D4F8F83043B14FF0E4
:1016B000500383F31188BFF36F8FBFF34F8FFEE7A3
:1016C000064B4FF080521A60BFF34F8FBFF36F8FFE
:1016D00070BD00BF9C000020A000002004ED00E0D1
:1016E00020B32DE9F0411D4CD4F8B43083420546B7
:1016F00019D001F0A9FCD4F8A8806E69D4F8BC70A8
:1017000001F0C4FC46451CD0BE421AD004F180034F
:101710009E4214D00434A64216D0002E0CBF0420E2
:101720000120BDE8F0810020BDE8F0814FF05003BA
:1017300083F31188BFF36F8FBFF34F8FFEE7AB6A60
:1017400023B10220BDE8F0810420EDE795F8543084
:10175000012B0CBF02200320E6E700BF9C00002005
:1017600010B5044601F070FC24B1E46A01F08EFC6F
:10177000204610BD034BD3F8B440E46A01F086FC68
:10178000204610BD9C00002010B5044601F040FD2D
:10179000EFF311834FF0500282F31188BFF36F8F84
:1017A000BFF34F8F1CB1E06A83F3118810BD034A69
:1017B000D2F8B440E06A83F3118810BD9C00002089
:1017C00004292DE9F84308D94FF0500383F3118819
:1017D000BFF36F8FBFF34F8FFEE704460D4601F056
:1017E00033FC002C55D0A36C9D424ED02C4E0BD90F
:1017F000D6F8B420A24250D0D6F8B420D76AAF426F
:101800008CBF0027012705E0D6F8B4703F1BB7FA5C
:1018100087F77F09D4F82C80A5644345A36908BFE6
:10182000E562002BA4BFC5F10505A5611D4D6269E8
:1018300008EB880305EB83039A421DD104F10409E8
:101840004846FEF7E1FD40B9D6F8B830012202FA69
:1018500008F823EA0803C6F8B830E06AD6F8B820DA
:101860000123834000EB80001343494605EB8000D1
:10187000C6F8B830FEF7A2FD3FB10B4B4FF08052D7
:101880001A60BFF34F8FBFF36F8FBDE8F84301F0CD
:10189000FDBB034BD3F8B440A5E70027BAE700BF70
:1018A0009C000020B800002004ED00E0F8B580B1F5
:1018B0001E4DD5F8B4308342044609D001F0C4FB74
:1018C0002046FFF7C3FC68B9BDE8F84001F0DEBB75
:1018D000F8BD4FF0500383F31188BFF36F8FBFF350
:1018E0004F8FFEE7261D3046FEF78EFDE06AD5F8E5
:1018F000B870012305F11C02834000EB80003B43DC
:1019000002EB80003146C5F8B830FEF757FDD5F838
:10191000B430E26ADB6A9A42D6D3054B4FF080526C
:101920001A60BFF34F8FBFF36F8FCDE79C0000208D
:1019300004ED00E000283AD02DE9F041054601F021
:1019400067FCEFF311874FF0500383F31188BFF367
:101950006F8FBFF34F8F2846FFF778FC044608B31C
:101960001B4ED6F8F8305BBBD6F8B430EC6ADB6AB5
:1019700005F104089C42404634BF00240124FEF7D0
:1019800043FDE86AD6F8B8500123834006F11C02F3
:1019900000EB80002B43414602EB8000C6F8B830D4
:1019A000FEF70CFD87F311882046BDE8F0814FF06B
:1019B000500383F31188BFF36F8FBFF34F8FFEE7A0
:1019C00005F1180106F19400FEF7F8FC0024E9E7A0
:1019D0009C00002030B51A4C1A491B4883B004F112
:1019E000FC030025CDE9005382222B46FFF724FD9E
:1019F000012803D001301AD003B030BD01F04CF8FB
:101A00000128F7D14FF0500383F31188BFF36F8F94
:101A1000BFF34F8F4FF0FF33C4F8AC30C4F8F00081
:101A2000C4F8B05003B0BDE8304001F097BB4FF0B0
:101A3000500383F31188BFF36F8FBFF34F8FFEE71F
:101A40009C000020304D0008F51100084FF05003B5
:101A500083F31188BFF36F8FBFF34F8F024B0022C8
:101A6000C3F8F02001F0DEBA9C000020034AD2F84F
:101A7000F8300133C2F8F830704700BF9C000020F6
:101A80002DE9F0413E4CD4F8F83043B94FF0500303
:101A900083F31188BFF36F8FBFF34F8FFEE701F021
:101AA000D3FAD4F8F830013BC4F8F830D4F8F83061
:101AB000002B52D1A369002B4FD0D4F894308BB3B4
:101AC00004F11C070126D4F8A030DD6805F10408F4
:101AD00005F11800FEF798FC4046FEF795FCE86A11
:101AE000D4F8B82006FA00F300EB80001343414617
:101AF00007EB8000C4F8B830FEF760FCD4F8B430CF
:101B0000EA6ADB6A9A4228BFC4F8C460D4F8943009
:101B1000002BD8D1D4F8A8301B6823BB4FF0FF337B
:101B2000C4F8AC30D4F80051A5B1012606E0FFF7A7
:101B3000F5FB08B1C4F8C460013D09D0D4F8F83011
:101B4000002BF4D0D4F800310133C4F80031F3E7AE
:101B5000C4F80051D4F8C43043B9002401F096FA17
:101B60002046BDE8F081FFF78BFBDBE7054B4FF02C
:101B700080521A60BFF34F8FBFF36F8F0124EDE7E0
:101B80009C00002004ED00E060B30B4641B94FF02B
:101B9000500383F31188BFF36F8FBFF34F8FFEE7BE
:101BA00002461D48D0F8F81029BBD0F8F8100131D2
:101BB00010B5C0F8F8101168D0F8B000CB182CBFE1
:101BC00001240024814213601ED9F4B9FFF758FFA5
:101BD00038B9124B4FF080521A60BFF34F8FBFF3EA
:101BE0006F8F10BD4FF0500383F31188BFF36F8FD9
:101BF000BFF34F8FFEE74FF0500383F31188BFF31D
:101C00006F8FBFF34F8FFEE70CB99842DED2181AE0
:101C10000021FFF73FFBD9E79C00002004ED00E026
:101C200008B5B0B10F4BD3F8F81041B14FF05003E5
:101C300083F31188BFF36F8FBFF34F8FFEE7D3F8A5
:101C4000F8200132C3F8F820FFF724FBFFF718FF54
:101C500038B9054B4FF080521A60BFF34F8FBFF376
:101C60006F8F08BD9C00002004ED00E0014BD3F80D
:101C7000B00070479C00002008B501F0C9FA024B83
:101C8000D3F8B00008BD00BF9C000020014B98694C
:101C9000704700BF9C00002008B134307047074BEC
:101CA000D3F8B4000028F8D14FF0500383F3118823
:101CB000BFF36F8FBFF34F8FFEE700BF9C00002084
:101CC0000C4BD3F8F82042B14FF0500383F3118846
:101CD000BFF36F8FBFF34F8FFEE7D3F8F8200132C9
:101CE000C3F8F820D3F800210244C3F80021FFF71D
:101CF000C7BE00BF9C000020064BD3F8F8200AB9ED
:101D0000FFF70CBBD3F800210132C3F800210020FB
:101D1000704700BF9C000020164AD2F8F8301BB173
:101D20000123C2F8C4307047C2F8C430D2F8B830CA
:101D3000B3FA83F3DBB2C3F11F0303EB830302EBBC
:101D400083009B00C16941B94FF0500383F31188B0
:101D5000BFF36F8FBFF34F8FFEE7016A13444968EB
:101D600001622433994204BF49680162CB68C2F81A
:101D7000B43070479C00002070B50446354D01F02A
:101D800063F9002C49D0261D3046FEF73DFB30B9E3
:101D9000E06A00EB800305EB8303DB694BB3A36AC6
:101DA0001BB104F11800FEF72FFB2B483146FEF75C
:101DB00005FB94F85430012B04BF002384F8543001
:101DC00001F064F9D5F8F030E3B9D5F8B430A342A6
:101DD00000D070BDD5F8F0303BB3D5F8F83063B320
:101DE0004FF0500383F31188BFF36F8FBFF34F8F12
:101DF000FEE7D5F8B8300122824023EA0203C5F895
:101E0000B830CCE701F020F9D5F8A8301B683BB119
:101E1000FFF736FA01F03AF9D7E7D5F8B440B2E760
:101E20004FF0FF33C5F8AC30F4E7D5F88010AA695D
:101E300091420BD1C5F8B43070BD084B4FF08052C1
:101E40001A60BFF34F8FBFF36F8F70BDBDE8704056
:101E5000FFF762BF9C0000201C01002004ED00E0A1
:101E600068B110B50A4B0C46D3F8B4101831FEF720
:101E7000B3FA20460121BDE81040FFF70BBA4FF03E
:101E8000500383F31188BFF36F8FBFF34F8FFEE7CB
:101E90009C00002038B570B11446134A0B46D2F8A6
:101EA000F81089B94FF0500383F31188BFF36F8F97
:101EB000BFF34F8FFEE74FF0500383F31188BFF35A
:101EC0006F8FBFF34F8FFEE7D2F8B450D2F8B41043
:101ED00043F00043AB611831FEF770FA2046012150
:101EE000BDE83840FFF7D6B99C00002038B590B166
:101EF0000D4B0D46D3F8B41014461831FEF75EFAB8
:101F0000002C08BF2846214618BF4FF0FF30BDE81F
:101F10003840FFF7BFB94FF0500383F31188BFF388
:101F20006F8FBFF34F8FFEE79C000020F8B5C368AA
:101F3000DD6875B31B4C05F118063046FEF764FAF0
:101F4000D4F8F8307BB1314604F19400FEF736FA4C
:101F5000D4F8B430EA6ADB6A9A4286BF0120C4F83A
:101F6000C4000020F8BD2E1D3046FEF74DFAE86A89
:101F7000D4F8B8700123834004F11C0200EB800008
:101F80003B43314602EB8000C4F8B830FEF716FA46
:101F9000DEE74FF0500383F31188BFF36F8FBFF379
:101FA0004F8FFEE79C000020F8B51E4CD4F8F85087
:101FB00045B94FF0500383F31188BFF36F8FBFF320
:101FC0004F8FFEE7C56841F0004303600DB32F1D3E
:101FD000FEF71AFA3846FEF717FAE86AD4F8B8C0DE
:101FE000012604F11C0206FA00F300EB800043EA2C
:101FF0000C0302EB80003946C4F8B830FEF7DEF976
:10200000D4F8B430EA6ADB6A9A4288BFC4F8C46084
:10201000F8BD4FF0500383F31188BFF36F8FBFF308
:102020004F8FFEE79C00002070B110B5044601F010
:102030000BF80A4BD3F8C020D3F8B030C4E9002322
:10204000BDE8104001F022B84FF0500383F311882F
:10205000BFF36F8FBFF34F8FFEE700BF9C000020E0
:10206000034BD3F8C020D3F8B030C0E90023704749
:102070009C000020F8B510B30D46B9B1044600F03D
:10208000E3FF2B681C4A591CD2F8B0002ED0D4E9CB
:102090000071D2F8C060B7421AD0814218D800232C
:1020A0002B60012500F0F2FF2846F8BD4FF05003E9
:1020B00083F31188BFF36F8FBFF34F8FFEE74FF0AD
:1020C000500383F31188BFF36F8FBFF34F8FFEE789
:1020D000461AB342E3D91B1A0B44D2F8C010D2F807
:1020E000B0202B60C4E900120025DBE7002500F0DA
:1020F000CDFF2846F8BD00BF9C000020024B012206
:10210000C3F8C420704700BF9C00002000B1406CA1
:10211000704700BF00B14164704700BF70B50C4606
:10212000164658B3054605F13401EA6A6160296B29
:1021300022612A6CE161A96CA260052B4FF00002BC
:10214000C4E9051225601FD01949D1F8B400A8428E
:1021500018D0032B23731CD076B12B6B1A78A52AC9
:1021600023D1C3F10100C11813F8012FA52AFAD019
:10217000C1F38F01218470BD268470BD0C4AD2F852
:10218000B450D0E72273E7E72846FFF7A9FA207397
:10219000E2E7D1F8F8300133C1F8F830AB6A0BB19F
:1021A00002232373FFF76CFCD6E70021E2E700BFB0
:1021B0009C0000204B685B682DE9F04701F108089E
:1021C000434508BFCB680E46D3F80CA091460546A0
:1021D000002700E073685C687460A04504BFD8F80D
:1021E00004407460E468294601224B4620461744A7
:1021F000FFF794FFA24505F12405EBD13846BDE871
:10220000F08700BF2DE9F843324ED6F8F83001339D
:10221000C6F8F830B3698B4255D800248146904601
:10222000A44606F16C070525013D05EB850306EB89
:1022300083030CEB0400DB693946012209EB8000C3
:1022400043B1FFF7B7FF044404EBC40009EB80007F
:102250004FEAC40C143F002DE6D1D6F8A8100B6845
:102260003BB10222FFF7A6FF044404EBC40009EBD4
:102270008000D6F8BC100B683BB10222FFF79AFF32
:10228000044404EBC40009EB8000736843B11249B5
:102290000422FFF78FFF044404EBC40009EB800025
:1022A000D6F8803023B10D490322FFF783FF0444A1
:1022B000B8F1000F02D00023C8F80030FFF7E0FBB0
:1022C0002046BDE8F8830024FFF7DAFB2046BDE88E
:1022D000F88300BF9C000020A00000201C0100200B
:1022E000014BD3F8B40070479C000020064BD3F894
:1022F000F02032B1D3F8F830002B0CBF02200020C0
:1023000070470120704700BF9C000020F8B50446CC
:10231000E0B1254DC36AD5F8B420D26A934216D2F3
:102320008269002A05DBD5F8B420D26AC2F1050221
:1023300082611E4E626903EB830306EB83039A42BC
:102340000ED0D5F8B430DB6AE3620120F8BDD5F8D1
:10235000B430806CDC6AA0422CBF00200120F8BDA4
:10236000271D3846FEF750F840B9E16AD5F8B83075
:1023700001228A4023EA0203C5F8B830D5F8B43008
:10238000D5F8B820D86AE062012404FA00F300EB23
:10239000800006EB800013433946C5F8B830FEF7DD
:1023A0000DF82046F8BD00BF9C000020B8000020BA
:1023B000D0B1F8B5254ED6F8B4308342044608D0E3
:1023C0004FF0500383F31188BFF36F8FBFF34F8F2C
:1023D000FEE7DB6C53B1C16A826C013B9142C3647E
:1023E00000D063B10020F8BD002070474FF05003CB
:1023F00083F31188BFF36F8FBFF34F8FFEE7071D85
:102400003846FEF701F840B9E16AD6F8B830012243
:102410008A4023EA0203C6F8B830A36CD6F8B8C0E5
:102420000B48E362012505FA03F23946C3F10507BB
:1024300003EB830342EA0C0200EB8300A761C6F8BA
:10244000B820FDF7BBFF2846F8BD00BF9C00002068
:10245000B8000020B8B1F8B50B46C16C044649B1CC
:10246000806CE26A834238BF03469A4201D0012958
:102470000AD0F8BD4FF0500383F31188BFF36F8F7C
:10248000BFF34F8FFEE770471E4DD5F8B410A14241
:1024900025D0A1691C4EE3620029A8BFC3F1050342
:1024A0006169A8BFA36102EB820206EB8203994235
:1024B000DFD1271D3846FDF7A7FFC8B1E06A012329
:1024C0008340D5F8B82000EB8000134306EB800072
:1024D0003946C5F8B830BDE8F840FDF76FBF4FF09A
:1024E000500383F31188BFF36F8FBFF34F8FFEE765
:1024F000E06AD5F8B8200123834022EA0302C5F838
:10250000B820DEE79C000020B8000020064AD2F880
:10251000B410D2F8B430D2F8B420DB6A8869C3F1C1
:1025200005039361704700BF9C000020054BD3F862
:10253000B42022B1D3F8B410CA6C0132CA64D3F803
:10254000B40070479C00002040B14FF0500383F36B
:102550001188BFF36F8FBFF34F8FFEE770B5194C33
:102560000E46154600F070FDD4F8B4301B6D83B9EB
:10257000D4F8B430012183F8541055B12846FEF741
:1025800089FE114B4FF080521A60BFF34F8FBFF39B
:102590006F8F00F07BFD00F057FDD4F8B4301D6D57
:1025A00025B1D4F8B43056B100221A65D4F8B4304D
:1025B000002283F8542000F069FD284670BD6A1E91
:1025C0001A65F3E79C00002004ED00E02DE9F041DE
:1025D000DDF8188040B14FF0500383F31188BFF34A
:1025E0006F8FBFF34F8FFEE7234C1D460F461646F5
:1025F00000F02AFDD4F8B43093F85430022B0DD0FB
:10260000D4F8B420136D23EA07031365D4F8B4306B
:10261000012183F85410B8F1000F19D100F036FDF4
:1026200000F012FD1DB1D4F8B4301B6D2B60D4F84E
:10263000B43093F85430022B16D00025D4F8B430BF
:10264000002283F8542000F021FD2846BDE8F081E7
:102650004046FEF71FFE094B4FF080521A60BFF351
:102660004F8FBFF36F8FD9E7D4F8B420136D23EAEF
:10267000060313650125E1E79C00002004ED00E05E
:10268000F8B5069D41B14FF0500383F31188BFF3B5
:102690006F8FBFF34F8FFEE7044698B116461F4673
:1026A00000F0D2FC0DB1236D2B6094F8545002233E
:1026B000EDB284F85430042F52D8DFE807F00F0C45
:1026C00049384D004FF0500383F31188BFF36F8FEB
:1026D000BFF34F8FFEE7236D1E432665012D04D007
:1026E000012500F0D3FC2846F8BD271D234E3846AF
:1026F000FDF78AFEE06AD6F8B8C005FA00F306F1E5
:102700001C0200EB800043EA0C03394602EB800018
:10271000C6F8B830FDF752FEA36A53B14FF050032C
:1027200083F31188BFF36F8FBFF34F8FFEE72665EA
:10273000D4E7D6F8B430E26ADB6A9A42D0D9104BBB
:102740004FF080521A60BFF34F8FBFF36F8FC8E70F
:10275000236D01332365C1E7022DE8D10025C0E7D1
:10276000064BD3F8B030002BB8D04FF0500383F3B2
:102770001188BFF36F8FBFF34F8FFEE79C000020DF
:1027800004ED00E02DE9F843DDE9085848B189B1CE
:102790004FF0500383F31188BFF36F8FBFF34F8F58
:1027A000FEE74FF0500383F31188BFF36F8FBFF341
:1027B0004F8FFEE716469946044600F029FDEFF3D9
:1027C00011874FF0500383F31188BFF36F8FBFF36E
:1027D0004F8F0DB1236D2B6094F854500223EDB24E
:1027E00084F85430B9F1040F55D8DFE809F0044CEF
:1027F000500316002665012D04D0012087F31188AF
:10280000BDE8F883A36A63B14FF0500383F31188E6
:10281000BFF36F8FBFF34F8FFEE7022DEAD1002089
:10282000ECE7244ED6F8F83033BB04F104094846EF
:10283000FDF7EAFDE06AD6F8B8C005FA00F306F144
:102840001C0200EB800043EA0C03494602EB8000C7
:10285000C6F8B830FDF7B2FDD6F8B430E26ADB6AEC
:102860009A42CAD9B8F1000F02D00123C8F800304B
:102870000120C6F8C400C1E704F1180106F1940074
:10288000FDF79CFDE8E7236D1E432665B3E7236D46
:1028900001332365AFE7074BD3F8B030002BAAD044
:1028A0004FF0500383F31188BFF36F8FBFF34F8F47
:1028B000FEE700BF9C0000202DE9F84348B189B134
:1028C0004FF0500383F31188BFF36F8FBFF34F8F27
:1028D000FEE74FF0500383F31188BFF36F8FBFF310
:1028E0004F8FFEE71746044600F092FCEFF3118885
:1028F0004FF0500383F31188BFF36F8FBFF34F8FF7
:10290000022394F8542084F85430236D012A03F1F3
:1029100001032365D6B203D088F31188BDE8F8839C
:10292000A36A43B14FF0500383F31188BFF36F8F55
:10293000BFF34F8FFEE7174DD5F8F8301BBB04F1FE
:1029400004094846FDF760FDE06AD5F8B8C006FA0C
:1029500000F305F11C0200EB800043EA0C0349463A
:1029600002EB8000C5F8B830FDF728FDD5F8B4308B
:10297000E26ADB6A9A42CFD90FB101233B6001239F
:10298000C5F8C430C8E704F1180105F19400FDF75B
:1029900015FDEBE79C00002041B14FF0500383F39D
:1029A0001188BFF36F8FBFF34F8FFEE710B504465A
:1029B00070B100F049FB94F85430022B05BF00239E
:1029C00084F854300024012400F060FB204610BD40
:1029D000014BD3F8B440ECE79C00002070B50E46E4
:1029E000154668B1044600F02FFB04EB86010C6D20
:1029F0000B6D23EA05030B6500F048FB204670BD14
:102A0000014BD3F8B440EEE79C000020F8B5104C21
:102A100000F01AFB25681DB1BDE8F84000F036BB98
:102A2000271D384604F11806FDF7B8FC3046FDF7BF
:102A3000B5FC2A460C210A20C4E90B76FDF7D6FD29
:102A400020600028E8D00349FEF76AFBE4E700BFF6
:102A5000A0010020384D0008914208B50061416096
:102A600005D88169D21A8A420CD3012008BD9A4246
:102A700001D29942F9D2074B011DD86AFDF7ACFC8F
:102A8000002008BD034B011D186BFDF7A5FC0020BD
:102A900008BD00BFA001002000B583B0FFF7B6FF5E
:102AA0000D4B1A685AB134330222CDE900230B4989
:102AB0000B4800234FF48272FEF7BEFC40B94FF082
:102AC000500383F31188BFF36F8FBFF34F8FFEE77F
:102AD00003B05DF804FB00BFA0010020404D0008DA
:102AE000292C00082DE9F04107462C208846154680
:102AF0001E4600F0E5FB0446B0B1002380F8283004
:102B0000B8F1000F13D0FFF781FF069B2760C4E9DF
:102B100006862362201DFDF74DFC2DB194F8283068
:102B200043F0040384F828302046BDE8F0814FF0DC
:102B3000500383F31188BFF36F8FBFF34F8FFEE70E
:102B4000C0B130B5164C15461A460346206885B00C
:102B500070B10529CDE90115039314DCFFF7C6FB1D
:102B6000022816D0002320681A4601A9FDF78EFD21
:102B700005B030BD4FF0500383F31188BFF36F8F62
:102B8000BFF34F8FFEE7002301A9FDF771FE05B0EB
:102B900030BD2068089A002301A9FDF777FDE7E71B
:102BA000A00100202DE9F0411E4E82B04FF0000838
:102BB0000DE0DB68DC681F68251D2846FDF724FC56
:102BC000236A2046984794F828305B0709D4F36AB3
:102BD0001A68002AEDD1326BC6E90B2302B0BDE8BA
:102BE000F081A26907EB020C002367453A461946BB
:102BF000204607D2F06AC4F804C024612946FDF7D4
:102C0000EBFBE4E7CDF80080FFF79AFF0028DED168
:102C10004FF0500383F31188BFF36F8FBFF34F8FD3
:102C2000FEE700BFA00100202DE9F047774CDFF858
:102C3000E08186B04FF080574FF00009E36A1E68CC
:102C4000002E00F08A80DB681E68FEF70FFFFFF79A
:102C50000DF8A36B8342054600F28E808642A06386
:102C600040F2938000222068711BFEF79BFAFEF76A
:102C700007FF28B9C8F80070BFF34F8FBFF36F8FFD
:102C80002068002203A9FDF7C5FE0028D6D0039BCB
:102C9000002BF5DB059E736913B1301DFDF7B4FB06
:102CA000FEF7E4FFA36B984205466BD3039BA56335
:102CB000092BE5D8DFE803F0050505413048050597
:102CC000413096F82800049BB16940F0010086F875
:102CD00028002A4619443046FFF7BEFE0028CFD010
:102CE000336A3046984796F828305907C8D5049972
:102CF000B269CDF8009000230A4430461946FFF728
:102D00001FFF0028BCD14FF0500383F31188BFF39D
:102D10006F8FBFF34F8FFEE796F828300499B161AB
:102D200043F0010386F82830002966D02944304654
:102D30002B462A46FFF790FEA2E796F8283023F0AC
:102D4000010386F828309BE796F828309A0733D598
:102D500023F0010386F8283092E7FEF787FEFEF79E
:102D600085FFA36B9842054606D3236BA5631A68BB
:102D7000B2FA82F2520976E7FFF714FFA563FEF775
:102D80007FFE7DE7FFF70EFF90E7FEF779FEE36A2F
:102D9000DB68D3F80CA00AF10400FDF735FB9AF8C4
:102DA000283058070CD423F001038AF82830DAF8C9
:102DB00020305046984763E7304600F007FB5FE756
:102DC000DAF818102A46314433465046FFF744FEDD
:102DD0000028ECD00023CDF800903246194650462A
:102DE000FFF7AEFE0028E2D14FF0500383F31188C5
:102DF000BFF36F8FBFF34F8FFEE74FF0500383F3A6
:102E00001188BFF36F8FBFF34F8FFEE7A001002043
:102E100004ED00E0064B586B00B170474FF05003D3
:102E200083F31188BFF36F8FBFF34F8FFEE700BFAF
:102E3000A001002008B1806970474FF0500383F370
:102E40001188BFF36F8FBFF34F8FFEE738B5B0B176
:102E500004460D4600F0F8F894F828303DB903F028
:102E6000FB0384F82830BDE8384000F00FB943F088
:102E7000040384F82830BDE8384000F007B94FF06B
:102E8000500383F31188BFF36F8FBFF34F8FFEE7BB
:102E900058B110B5044600F0D7F894F82840C4F3B0
:102EA000800400F0F3F8204610BD4FF0500383F388
:102EB0001188BFF36F8FBFF34F8FFEE708B14068F3
:102EC00070474FF0500383F31188BFF36F8FBFF348
:102ED0004F8FFEE708B1006870474FF0500383F34F
:102EE0001188BFF36F8FBFF34F8FFEE758B110B556
:102EF000044600F0A9F894F8284004F0010400F01A
:102F0000C5F8204610BD4FF0500383F31188BFF37E
:102F10006F8FBFF34F8FFEE740B110B5044600F04E
:102F200093F8E46900F0B2F8204610BD4FF050036A
:102F300083F31188BFF36F8FBFF34F8FFEE700BF9E
:102F400038B540B104460D4600F07EF8E561BDE8B5
:102F5000384000F09BB84FF0500383F31188BFF363
:102F60006F8FBFF34F8FFEE7406A70474162704733
:102F700006480068006880F3088862B661B6BFF34F
:102F80004F8FBFF36F8F00DF00BF000008ED00E040
:102F90000E4B1B6882B000220133019208D04FF023
:102FA000500383F31188BFF36F8FBFF34F8FFEE79A
:102FB0004FF0500383F31188BFF36F8FBFF34F8F30
:102FC000019B002BFCD002B0704700BF180000200E
:102FD00010B4084B40F8202C4FF0807421F0010110
:102FE00040F8044C40F8081C40F80C3C10BC403839
:102FF000704700BF912F0008094B19680868B0E8B6
:10300000F00F80F30988BFF36F8F4FF0000080F35B
:1030100011884EF00D0E7047AFF30080AFF30080C3
:1030200050010020074B1B68B3F57A7F08D04FF0A2
:10303000500383F31188BFF36F8FBFF34F8FFEE709
:10304000704700BF180000204FF0500383F3118831
:10305000BFF36F8FBFF34F8F0A4A13680133012B01
:10306000136000D07047084B1B6813F0FF0FF9D0B6
:103070004FF0500383F31188BFF36F8FBFF34F8F6F
:10308000FEE700BF1800002004ED00E0084A1368C6
:1030900043B94FF0500383F31188BFF36F8FBFF331
:1030A0004F8FFEE7013B13600BB983F31188704724
:1030B00018000020EFF30980BFF36F8F104B1A68E0
:1030C00020E9F00F10602DE908404FF0500080F328
:1030D0001188FEF721FE4FF0000080F31188BDE853
:1030E000084019680868B0E8F00F80F30988BFF35A
:1030F0006F8F7047AFF30080AFF30080AFF30080B5
:103100005001002008B54FF0500383F31188BFF33E
:103110006F8FBFF34F8FFEF7EFFD18B1034B4FF0EA
:1031200080521A60002383F3118808BD04ED00E08B
:1031300030B4064B064D0748074C002207211A60A1
:103140002A60046030BC1960704700BF10E000E0E6
:1031500018E000E014E000E03F90020010B5284BBA
:10316000284A197882B0FF20C9B2019118701B78E3
:10317000DBB28DF803309DF803309DF8031003F0A7
:10318000500307200C061370506048BF06210FD56E
:103190009DF803305B00DBB28DF803309DF803002F
:1031A00000060B4601F1FF31F2D4032B09D0536026
:1031B0004FF0500383F31188BFF36F8FBFF34F8F2E
:1031C000FEE701990E48104BC9B20170196841F42D
:1031D00070011960196841F0704119604FF4407333
:1031E0005360FFF7A5FF094B00241C60FFF7C0FEEA
:1031F000FEF792FDFFF7CCFE204602B010BD00BFE7
:1032000000E400E0DC01002020ED00E018000020D8
:10321000EFF305820F2A11D8104B11495A680B6839
:1032200003F4E063934208D94FF0500383F311880D
:10323000BFF36F8FBFF34F8FFEE770470949074B0E
:10324000525C19789142E8D94FF0500383F311880A
:10325000BFF36F8FBFF34F8FFEE700BFDC0100208D
:103260000CED00E0F0E300E030B4144C23461A46C5
:103270001B688342FBD351685518A84209D04168A6
:103280004518AB420CD09042036030BC18BF1060B0
:1032900070474068014410464518AB425160F2D176
:1032A000A468A342EFD0D3E90034904221440360E4
:1032B000416030BC18BF1060704700BFE4010020BF
:1032C0002DE9F0413F4C0546FEF7D0FBA368002BEB
:1032D00037D0E66835422DD165B305F1080369079B
:1032E0001CBF23F00703083323B367699F4221D330
:1032F0002568344903E0286820B1294605466A68F4
:103300009A42F8D3A068A84214D02868D1F8008067
:103310000860D11A102908F1080835D9E8184207C1
:103320002DD04FF0500383F31188BFF36F8FBFF39D
:103330004F8FFEE7FEF7A4FB4FF000084046BDE8C4
:10334000F081214B580714BFDA1D1A4603F5963356
:10335000A3F1080323F0070318BF22F00702114668
:1033600000209A1A4FF00046C4E90010C4E9042274
:10337000C3E90000A360C1E90032E660AAE741604A
:103380006B60FFF771FF6A682169A369BF1A8F42FA
:1033900042EA06024FF0000103F101036A6029606E
:1033A00038BF27616761A361FEF76AFB18F0070F5A
:1033B000C4D04FF0500383F31188BFF36F8FBFF376
:1033C0004F8FFEE7E401002004020020E0B138B591
:1033D000194D50F8043CEA68134204460BD050F8EB
:1033E000081C91B14FF0500383F31188BFF36F8F26
:1033F000BFF34F8FFEE74FF0500383F31188BFF305
:103400006F8FBFF34F8FFEE7704723EA020340F848
:10341000043CFEF72BFB6A6954F8043CA4F1080055
:1034200013446B61FFF720FFEB690133EB61BDE8EB
:103430003840FEF725BB00BFE4010020014B58696E
:10344000704700BFE4010020014B1869704700BFBE
:10345000E4010020704700BF2DE9F041DFF86480EF
:103460000746FEF703FBD8F8003033B30024D8F842
:10347000081025464FF0FF36D3E90032944238BF9A
:103480001446964228BF1646994205F10105F3D12C
:10349000FEF7F6FAC7E90146FD60FFF7D5FDD8E96A
:1034A0000501D8F81C20D8F810303860C7E905129B
:1034B0003B61BDE8F041FFF7E9BD1C461D464FF0FA
:1034C000FF36E5E7E401002009490A4A82B00020FE
:1034D0000190019B8B4205DC019B01330193019B11
:1034E0008B42F9DD536983F480535361F0E700BFE9
:1034F0007F841E00000C024009490A4A82B0002065
:103500000190019B8B4205DC019B01330193019BE0
:103510008B42F9DD536983F400535361F0E700BF38
:103520007F841E00000C0240704700BF704700BF40
:10353000284A294B116841F005011160116841F4D6
:10354000807111601A6842F001021A601A689007CF
:10355000FCD55A685A6059681F4A21F03F015960EA
:10356000596841F010015960596821F4FF4121F078
:1035700040015960596841F480615960596841F4CB
:1035800080515960596841F480415960596821F46B
:1035900040315960996821F4E0519960996841F48B
:1035A000A0519960996821F460419960996841F44B
:1035B00000419960196841F08071196013689901A0
:1035C000FCD59368044943F0020393608B681B07A2
:1035D000FCD57047003C02400038024003685A00A6
:1035E00004D5802212061343C01870475B005B08A5
:1035F000FAE7C046F8B557464546DE464E46904681
:10360000E0B50700002924D04B1E9A4699460023B6
:103610009B465B464B44DC0FE4186410E5007E19C2
:103620003000FFF7DBFFA2450CD040450CD8280046
:1036300008303818FFF7D2FF013840450AD2631C22
:103640009B46E6E7404505D9A34502D0631E99464F
:10365000DFE7002630003CBC90469946A246AB46C8
:10366000F8BC02BC0847C0460300012805D0022868
:1036700007D00020002B02D070470348FCE7034826
:10368000FAE70348F8E7C046DD3D0008CD3D0008F5
:10369000ED3D000830B5244B050083B08C1E002B97
:1036A00028D0200001A9AFF3008000281ED0019986
:1036B0002200FFF79FFF041E18D0FFF78FFF6368FB
:1036C000A864012B2CD0201D002B25DBFFF786FFE3
:1036D0000023E8642B650368002B11DBFFF77EFFF6
:1036E0002861002003B030BC02BC08470023092039
:1036F0002B61F7E70D480E49091AC9100191D7E768
:103700001801000FFFF7B0FF2861431E98410823FE
:10371000404298430930E5E70123E8642B65DAE786
:10372000002305202B61DDE700000000A04D00080C
:10373000784E0008036810B50400DA0705D49B072B
:103740000CD5483000F0D2FC23685A070CD51A0774
:1037500011D5DB0617D510BC01BC0047483000F07E
:10376000BDFC23685A07F2D42000D03000F0C6FC1C
:1037700023681A07EDD420005130FF3000F0C6FC5A
:103780002368DB06E7D42000D130FF3000F002FDD3
:10379000E1E7C04603000068002800D0C018704769
:1037A000092070477047C04670B504000D00200026
:1037B000296CFFF76FFF002812D12B6C2A00636180
:1037C00021000120236900F077FC0828EFD00728AA
:1037D00006D10020296CFFF7E5FF281D00F070FCE2
:1037E00000F02AFFF0B5CE46474680B5C368334C9B
:1037F0009846A5448369040016000431402205A8B8
:10380000994600F05BFF0023049327E0F022149B0D
:103810005200636104A97CA8039300F04FFF2100CC
:10382000280023697CAA00F047FC8A9B0393159328
:103830004B46019304AB05000093220023003100A6
:10384000012000F03BFC002824D1F0227CA952008A
:1038500004A800F033FF0026082D26D1149B200079
:1038600019000393FFF716FF0936350607002D0EE2
:103870000028CBD0129B039315934B461021019344
:1038800004AB0093220023000120294300F016FC22
:10389000002800D009273800F5239B009D440CBC6C
:1038A00090469946F0BC02BC0847072DF2D1300083
:1038B0001499FFF777FF05A800F002FC2CFCFFFF2E
:1038C000406C704770B5CB6BFAB00B6405000E000E
:1038D0004022043103A800F0F1FE01235B42029371
:1038E00007E029002B6902AA00F0E6FB0400082883
:1038F0000CD1129B280019000193FFF7CBFE002882
:10390000EFD009207AB070BC02BC084702A8FFF7CC
:1039100011FF062CF5D131002800FFF745FFC04606
:1039200010B58261DA6BC1601A6419000022FFF7DA
:1039300059FF10BC02BC0847436970B50B64C368EB
:1039400004000D00002B14D10A002369010002209D
:1039500000F0B2FB072805D008280FD1290020006D
:10396000FFF722FF0020296CFFF71CFF281D00F045
:10397000A7FB0122FFF736FF00F05EFE00F05CFEC1
:10398000C36810B5002B07D0CB6B00220B64FFF788
:1039900029FF10BC02BC0847FFF794FFF9E7C046B7
:1039A0007047C0468368010010B5002B02D001208B
:1039B00000F082FB10BC01BC0047C046012916D0B4
:1039C0000AD8002B11D10F2A0FD892008218526802
:1039D000009B00201A6007E0012003390906090E48
:1039E000884280414042013070470220FCE70120BC
:1039F000FAE7C04600B585B003AB0A00009300218A
:103A00000023FFF7DBFF039805B002BC0847C04660
:103A1000012916D00AD8002B11D10F2A0FD8009BEC
:103A200092001B6882185360002007E001200339D0
:103A30000906090E88428041404201307047022049
:103A4000FCE70120FAE7C04600B585B003AB03925E
:103A500000930A0000230021FFF7DAFF05B001BC44
:103A60000047C046F0B51D4CD36BA5441364060057
:103A70000D0019A8111D402200F020FE01235B4219
:103A80000427189316E00C2118A802AAFFF7DCFF00
:103A9000290018A800F011FB002813D1069B18AAD2
:103AA00002A90830019300F007FB431FBB43040049
:103AB0001B0608D0289B02A819000193FFF7EAFD16
:103AC0000028E0D0092418A8FFF734FE2000912335
:103AD0009B009D44F0BC02BC0847C046BCFDFFFFF4
:103AE000F0B55746924603224546DE464E46884686
:103AF0001100E0B5014089B000914146CC6C1D0039
:103B0000019308CC05A98B460694002D00D183E0D3
:103B10001A0C1B045946059302230B72FD33134004
:103B20009B004A72E418009B022B01D143469C6B18
:103B300043461B6DDB0707D55946504600F0DAFBBC
:103B4000002834D1082033E02568002DF4D0082364
:103B5000184000230293434243410393019B022BED
:103B600057D02588668804340123370099469F433F
:103B700043469B6C9C460F2150466744FFF73AFF33
:103B8000760087421DD82B004A469343DF198742AF
:103B900017D902231E404B462B401D003543012DF3
:103BA00000D1BEE0022D00D188E0002D4BD00920CD
:103BB00009B03CBC90469946A246AB46F0BC02BC5C
:103BC000084702231E40013B1D403543012D35D0DF
:103BD000022D26D0002DEAD104342568002DBDD158
:103BE0005946504600F086FB0028E0D1029B002B8E
:103BF000A8D00F215046FFF7FDFE0E2102005046CF
:103C0000FFF722FF50460F216F4AFFF71DFF0720E5
:103C1000CEE766680834A7E71B0205935B461A8166
:103C200081E72368009A5F007F08002A3CD1002BBF
:103C300000DA04340137BF00E419CEE7009B002B03
:103C400017D10834C9E7009B002BC5D02000FFF72F
:103C5000C5FC4346043405009C634046AFF3008036
:103C60000028A4D050462A000F21FFF7EDFE0720C0
:103C70009EE743460D2150461D6AFFF7BBFE854275
:103C8000DFD143469B6A9C42DBD12000FFF7A6FCB4
:103C90000F2102005046FFF7D7FE50464246002152
:103CA000FFF7D2FE072083E743460D2150461D6AE9
:103CB000FFF7A0FE854260D02368B8E72368009A2A
:103CC0005F007F08002AEFD1039A002A01D1002F5C
:103CD000ADD15823434499464346261DA0460025AE
:103CE0001C000EE04B4630000493FFF753FD00220A
:103CF000010004AB2000AFF300800135043600283A
:103D00004ED1BD42EED12300444698460D21504687
:103D1000FFF770FE4346049A18625A6206209C62BE
:103D200046E7009B002BA4D12368DD0F63689A1C33
:103D300000D13CE7424658320492013335D0201D71
:103D4000FFF728FD2A00010004AB4046AFF30080D6
:103D5000002800D175E705000D215046FFF74AFE07
:103D600043461862022D26D1049ADA6242462C3369
:103D70005362434606209C621AE743469B6A9C4274
:103D80009AD1434642469F620023D36204331363B1
:103D9000231D53632368002B11DB0123029349E7A2
:103DA000230044469846236841E70D215046FFF71B
:103DB00021FE434618624346049A5A62D9E7781CAA
:103DC0008000201862E7C0460000000010B5002304
:103DD000FFF786FE10BC02BC0847C04610B50123A1
:103DE000FFF77EFE10BC02BC0847C04610B5022398
:103DF000FFF776FE10BC02BC0847C046F0B5464649
:103E0000D6464F46C0B5050014001E00C2B00329B7
:103E100055D05FD8002900D17DE0012951D1130C84
:103E200014049846320004239A431300240C012AF8
:103E300047D142461219012E00D1A9E0202A40D8CC
:103E400041460F2900D8C3E0A146052E00D1F1E07C
:103E5000002C36D1AA6B20AF002C2ED0002399461F
:103E60004346DB00FF180023E400D158F950043327
:103E70009C42FAD14B461219002B10D0EA4641461B
:103E8000102900D210214B46D80000231039C90058
:103E90005144D458CC5004339842FAD11218012E10
:103EA00000D1C5E04346AA630F2B00D8D3E04B46B0
:103EB000002B02D0684600F021F9002002E0032B1D
:103EC00043D0022042B01CBC90469946A246F0BCAA
:103ED00002BC08470429F4D1002BF2D110239342ED
:103EE000EFD3026813426CD120AF380000F05CF9C8
:103EF00000230120AA6B010099400C4202D040CA65
:103F000099007E500133042BF5D13800AA6300F0EC
:103F100041F90020D6E7002BD3D101218846291D85
:103F200000238C461004AA6B000C414699400842BD
:103F300003D0664680CA990077500133102BF4D124
:103F40000020A304BED4AA63BCE71404160C240CFE
:103F50003319102BB5D8082203681A4261D120AF5B
:103F6000380000F0F5F8F600AB6B002C0AD0F61A1A
:103F7000E400321F1C19BA1819000968043399505B
:103F8000A342F9D13800AB6300F0C0F8002099E7F4
:103F9000102A96D843460F2B93D8026816425ED15A
:103FA00020AF380000F09EF80023AA6B9946002C41
:103FB00000D055E704323800AA6300F08FF80020E3
:103FC00080E79A430260D130FF3000F0EDF88BE7D4
:103FD000102A5ED9052E00D073E710235B42994664
:103FE000914401222B681A4208D0934302222800F0
:103FF00013432B60483000F07DF82B685A071FD41C
:1040000020AF380000F076F8EA46504600F07AF823
:1040100010244346AA6BE41A20AF002C00DD1FE7F2
:104020002DE7934303605130FF3000F091F896E79D
:1040300020AFBFE7002C00D10CE72B685A07E3D56F
:104040000422280093432B60D03000F05BF84346F5
:104050000F2BD9D8D4E720A800F048F827E703238E
:1040600028009A432A60483000F03CF8012E97D08F
:1040700043460F2B00D9EDE620AF380000F03AF8A8
:10408000AA6B002C00D0E9E6380000F02FF80020E1
:1040900018E72A681342E9D0052EE0D10123280051
:1040A0009A4301331A432A60483020AF00F022F8C7
:1040B000380000F01FF8E3E7184730474047C04694
:1040C000341080E2380091E80520A0E11C002DE9C1
:1040D000FF0F90E800709DE81CFF2FE1210B90EC92
:1040E0001EFF2FE1210B80EC1EFF2FE1200B90EC37
:1040F0001EFF2FE1200B80EC1EFF2FE1200BD0ECE8
:104100001EFF2FE1200BC0EC1EFF2FE10201F0EC9F
:104110000211F0EC0221F0EC0231F0EC0241F0EC83
:104120000251F0EC0261F0EC0271F0EC0281F0EC73
:104130000291F0EC02A1F0EC02B1F0EC02C1F0EC63
:1041400002D1F0EC02E1F0EC02F1F0EC1EFF2FE105
:104150000201E0EC0211E0EC0221E0EC0231E0ECC3
:104160000241E0EC0251E0EC0261E0EC0271E0ECB3
:104170000281E0EC0291E0EC02A1E0EC02B1E0ECA3
:1041800002C1E0EC02D1E0EC02E1E0EC02F1E0EC93
:104190001EFF2FE10181B0FC0191B0FC01A1B0FC38
:1041A00001B1B0FC1EFF2FE10181A0FC0191A0FC38
:1041B00001A1A0FC01B1A0FC1EFF2FE100E02DE950
:1041C000FF1F2DE90030A0E30C002DE904108DE263
:1041D00004C08FE201C08CE31CFF2FE1FFF772FBEC
:1041E000109B12B01847C04600E02DE9FF1F2DE9D3
:1041F0000030A0E30C002DE904108DE204C08FE232
:1042000001C08CE31CFF2FE1FFF796FB109B12B05F
:104210001847C04600E02DE9FF1F2DE90030A0E35C
:104220000C002DE904108DE204C08FE201C08CE384
:104230001CFF2FE1FFF7A4FB109B12B01847C046EC
:1042400000E02DE9FF1F2DE90030A0E30C002DE96F
:1042500004308DE204C08FE201C08CE31CFF2FE12B
:10426000FFF75EFB109B12B01847C04600E02DE937
:10427000FF1F2DE90030A0E30C002DE904208DE2A2
:1042800004C08FE201C08CE31CFF2FE1FFF7EAFBC3
:10429000109B12B01847C046027A0300002A0BD1C7
:1042A000427A002A0FD0013A42724268111D4160E1
:1042B00003211268017202E0013A02720268100ED4
:1042C00012021A607047B020FCE7C04600B585B006
:1042D00003AB00930C2200230021FFF76FFB039830
:1042E00005B002BC0847C04610B5FFF7EFFF10BC91
:1042F00002BC0847F0B54E4645465746DE46002309
:10430000E0B587B003930F339846083B9946802366
:104310001B0306000D009A462800FFF7BDFF0400AE
:10432000B02800D1C0E003062DD5030042469343D8
:104330001B061B0E802B53D0902B40D0A02B68D097
:10434000B02B00D17BE0C02B00D192E003004A46A5
:1043500093431B061B0ED02B0AD153460240013259
:104360001A43052301213000FFF748FD0028D3D070
:104370000924200007B03CBC90469946A246AB46B3
:10438000F0BC02BC0847FF23820013401F1D05AB91
:104390009B4600930D22002300213000FFF70EFB07
:1043A00063061AD4059B9C4667445B4605970093B9
:1043B00000230D2200213000FFF72AFBACE7833BEE
:1043C00003400D2BD4D005AF024000230021300064
:1043D0000097FFF7F3FA0097EAE7059BDF1BE4E796
:1043E00004022800FFF758FF802720433F02B8420D
:1043F000BED004010005020C002300213000FFF7AD
:10440000FDFC0028B4D13C4200D185E70123039391
:1044100082E7FF234A461B011900824311410A002B
:104420001A40030702D58023DB011A430023002131
:104430003000FFF7E3FC002800D16DE798E7B128D2
:1044400046D0B22800D1A2E0B32855D0FC230340C7
:10445000B42B00D18CE74A465346024001321A433E
:10446000012101233000FFF7C9FC002800D153E7E8
:104470007EE7C6284BD0C7285DD003004A46934349
:104480001B061B0EC02B6AD0C8286FD0C92800D0CD
:104490006EE72800FFF700FFF02302031B03134021
:1044A0004246024001325BE7039B0024002B00D010
:1044B0005FE705AD0E22002130000095FFF77EFA80
:1044C00000230F22002130000095FFF7A1FA50E7EA
:1044D0002800FFF7E1FE021E00D149E70300414634
:1044E0008B431B0600D043E700213000FFF786FC1A
:1044F000002800D110E73BE72800FFF7CDFEF023AE
:1045000002031B031340424602400132A7E7280082
:10451000FFF7C2FEF02302031B0313404246024092
:1045200001321A43032303213000FFF767FC002800
:1045300000D1F1E61CE72800FFF7AEFE021E00D115
:1045400016E7030041468B431B0600D010E7042109
:104550003000FFF753FC002800D1DDE608E74346B2
:10456000A0221C40013412032243DBE72800FFF79E
:1045700093FE434602009A4380235B029C464346D7
:104580001206120B1840624401300243E9E605AB03
:1045900000939B460D22002300213000FFF70EFA06
:1045A0002800FFF779FE03061AD57F27B03C059B4C
:1045B0003840A0409C466044059028000734FFF72F
:1045C0006BFE0306F3D481217F2389008C460340D0
:1045D000A340059A62449B1805935B460093E7E667
:1045E0000224F0E7030000B5DB6C5A6885B01202C4
:1045F00001921A00083202920800032269460A73E7
:10460000DB794B7301A9FFF775FE05B002BC0847C3
:1046100010B5FFF769FE806C10BC02BC0847C046AD
:1046200010B5FFF761FEC36CD8790230800018180E
:1046300010BC02BC0847C04610B5062000F086F941
:10464000012000F0E5FAC04670B5074C05000020D7
:10465000002C05D0130002300A00290000F0CAF92E
:1046600070BC02BC0847C046F549000870B50E4D45
:104670000E4E761BB61006D0002408CD013400F093
:104680001BF8A642F9D100F045FB094D094E761BF7
:10469000B61006D0002408CD013400F00DF8A64273
:1046A000F9D170BC01BC0047784E0008784E000874
:1046B000784E0008804E00081847C046F0B5C64640
:1046C00000B50F2A45D90B00032603431E400C00FA
:1046D0000300002E42D11500103D2D09AC462D01DE
:1046E000A846804400E03B0067685F60E768DF60E1
:1046F0001F0025681D60A56810379D601034434574
:10470000F1D165460F230C2401352D0149191340C1
:104710004519144225D08C59AC5104369C1B032CEE
:10472000F9D80324043B9B0801339B002240ED1879
:10473000C918561E002A07D0002300E02300CA5CD7
:104740005C1CEA549E42F9D104BC9046F0BC02BC09
:1047500008470500561E002AEED1F5E7561E050053
:10476000EAE71A00F6E7C046F0B5050083074ED029
:10477000541E002A46D00A06120E0300032602E049
:104780000135013C3ED301332A703342F8D1032C6A
:104790002FD9FF220A40150215432A0415430F2C76
:1047A00038D92700103F3F093E01B4461E001A00C9
:1047B00010366644156055609560D5601032B2427F
:1047C000F8D10F260C2201373F012640DB193700B4
:1047D00022421AD03E1FB608B400A4461A001C1D7F
:1047E000644420C2A242FCD103240136B6009B19C6
:1047F0003C40002C06D009061C19090E1970013323
:104800009C42FBD1F0BC02BC08473400F1E7140025
:104810000300BCE72700DDE710B58021040000F0AD
:1048200059F96064002809D002000023803208C0D2
:104830009042FCD1002010BC02BC0847012040423D
:10484000F9E7C046426C10B50023002A03D01800D7
:1048500010BC02BC0847FFF7DFFF0300F7E7C046C4
:1048600070B505000C0016001F2909D8436C002BF9
:104870000BD0A4001B1918681E6070BC02BC08474E
:104880001623036001204042F7E7FFF7C5FF002829
:1048900001D16B6CEDE701204042EEE770B50500F9
:1048A0000C001F2923D8436C002B11D08A009B18C1
:1048B0001A68002A0CD0012A17D0511C11D00021EF
:1048C0002000196000F078F8002070BC02BC084796
:1048D000280000F089F822000100280000F06EF89E
:1048E000F3E7162303600120EFE70020EDE716232E
:1048F000036001204042E8E770B505000C001F2965
:1049000020D8436C002B13D0A2009B181A68002AF1
:104910000CD0511C14D0012A10D0002120001960A5
:1049200000F04AF8002070BC02BC08470120FAE7FA
:10493000FFF772FF002805D16B6CE5E70320F2E773
:104940000220F0E701204042EDE7C04610B5044BDD
:1049500001001868FFF7A2FF10BC02BC0847C04660
:104960001C00002010B5054B1B680A000100180050
:10497000FFF776FF10BC02BC0847C0461C000020B1
:10498000064B1B685A6C10B50020002A02D010BCE0
:1049900002BC08471800FFF73FFFF8E71C000020A3
:1049A00010B5044B01001868FFF7A6FF10BC02BC4D
:1049B0000847C0461C0000201047C046002370B5C1
:1049C000084C050008001100236000F00BF9431C9F
:1049D00002D070BC02BC08472368002BF9D02B60C2
:1049E000F7E7C046EC2F012010B500F0F3F810BC3B
:1049F00002BC0847F0B546464F46D646C0B51F0034
:104A0000304B1C6882B005000E009046002C2FD061
:104A100063681F2B52DC002D1CD08822A0589146C1
:104A2000002836D07832825894469A0091468144C4
:104A3000424649460A600121624699400A4394462B
:104A400080228A466146520081504946803A8F5002
:104A5000022D18D000205A1C02339B0062601E51A8
:104A600002B01CBC90469946A246F0BC02BC084766
:104A7000154C1C60154B002BCAD01B680193882372
:104A8000019AE250C4E75546843281580D4385505F
:104A9000E0E70F4B002B11D084204000AFF30080E3
:104AA00000280BD080220023520083500432835010
:104AB0004B460022E05094466368B6E7012040422E
:104AC000CEE7C0469C2F0120102F01202C4D00085E
:104AD00000000000F8B50323CD1C9D4308350600F7
:104AE0000C2D00D20C25002D30DB8D422ED3300052
:104AF00000F06CF82A4F3A68002A0AD013685B1B52
:104B000004D441E023685B1B19D522005468002CB3
:104B1000F8D17B68002B3DD02900300000F042F82E
:104B2000431C2AD00323C41C9C43A04205D0211A55
:104B3000300000F037F8431C1FD0256010E00B2B2D
:104B40000BD86368A24223D0536009E00C230020F5
:104B50003360F8BC02BC084714002360E4182560E9
:104B6000300000F035F8200007220B30231D904361
:104B7000C21AEED01B1AA350EBE70C2330003360AF
:104B800000F026F80020E4E70B2BE5D8140053686A
:104B90003B60E5E70021300000F004F87860BBE7F7
:104BA000A02F0120002370B5074C050008002360EA
:104BB00000F020F8431C02D070BC02BC08472368F8
:104BC000002BF9D02B60F7E7EC2F01207047C0468F
:104BD0007047C04658220120014B40421A6070477E
:104BE000EC2F012058220120014B40421A607047EF
:104BF000EC2F0120044A1368002B03D01818106012
:104C000018007047014BF9E7A82F0120F02F012071
:104C1000FEE7C046002103E00B4B5B5843500431D4
:104C20000A480B4B42189A42F6D30A4A02E0002384
:104C300042F8043B084B9A42F9D3FBF703FBFFF71A
:104C400015FD00F00DF87047844E000800000020AC
:104C50008000002080000020F02F0120FEE70000EF
:104C600030B5174C174883B0FEF762FC236B164A29
:104C70001649174843F008032363136843F0807311
:104C80001360536943F480535361136843F08063A6
:104C900013605369002443F40053012553612346F4
:104CA0006422CDE90054FCF7C7FB0A490A482346B1
:104CB0006422CDE90054FCF7BFFBFCF78BFEFEE756
:104CC00000380240042E0120000C0240484D00082C
:104CD000C93400085C4D0008F934000810B5054CD3
:104CE0002046FEF721FC2046034A0449BDE8104057
:104CF00000F006B8042E0120000000202D35000829
:104D0000030010B508001900FFF79EFC10BC02BCA0
:104D100008470000F8B5C046F8BC08BC9E4670477E
:0C4D2000F8B5C046F8BC08BC9E467047C1
:104D2C00082E012049444C4500000000546D72517E
:104D3C0000000000546D7220537663006C65642093
:104D4C003120636F6E74726F6C6C657200000000C2
:104D5C006C6564203220636F6E74726F6C6C65725C
:044D6C000000000043
:104D700074B20181B0AB3080000000008008018176
:104D8000B0B0ABF0000000003F010181B0AB70801B
:104D90000000000080060181B0B0ABF00000000010
:104DA00028E7FF7F01000000ECE8FF7FB0A9028048
:104DB00084E9FF7FB0B0A880DCE9FF7F010000003C
:104DC000E8E9FF7FB0B0AA801CEAFF7FA4FFFF7F65
:104DD000F0EAFF7F01000000ECEAFF7FAA3F398084
:104DE00040EBFF7FB0B0A88050EBFF7FB0B0AA804F
:104DF00090EBFF7FB0B0A880A8EBFF7F0100000020
:104E0000A4EBFF7FB0B0A880B4EBFF7F01000000EF
:104E100054ECFF7FAB10B280C8ECFF7F60FFFF7FD8
:104E2000ACEFFF7FB0B0A880D4EFFF7F5CFFFF7FC7
:104E300090F2FF7F0100000094F4FF7F0084048063
:104E4000A8F4FF7FB0B0A880ACF4FF7F48FFFF7FDD
:104E500094F7FF7F00840480B8F7FF7FB0B0A8808C
:104E6000D8F7FF7F01000000F8FDFF7FB0A90280A6
:084E70006CFEFF7F0100000051
:084E780019020008DD4C0008DE
:044E8000E90100083C
:104E84000000000000000000000000000102030414
:104E940006070809007A030AAAAAAAAA2000002081
:104EA40000000000000000000000000000000000FE
:104EB40000000000000000000000000000000000EE
:104EC40000000000000000000000000000000000DE
:104ED40000000000000000000000000000000000CE
:104EE40000000000000000000000000000000000BE
:104EF40000000000000000000000000000000000AE
:0400000508004C158E
:00000001FF
